:100000000C942B030C9448030C9448030C94480361
:100010000C9448030C9448030C9448030C94CE179A
:100020000C9466180C9454180C9448030C944803D0
:100030000C9457170C9448030C9434150C944803F3
:100040000C9448030C9448030C9448030C94480304
:100050000C944803530957098B09010DC9093B0A40
:100060006909640AEB0BA70C2B0D010D010D010DA5
:10007000010D010D010D010D010D010D010D010D10
:10008000010D010D010D010D010D010D010D010D00
:10009000010D010D010D010D010D010D010D010DF0
:1000A000010D010D010D010D010D010D010D010DE0
:1000B000010D010D010D010D010D010D010D010DD0
:1000C000010D010D010D010D010D010D010D010DC0
:1000D000010D010D010D010D010D010D010D010DB0
:1000E000010D010D010D010D010D040DE919F619A8
:1000F000A11A891A841BF71A3A1B841B076342361C
:10010000B79BD8A71A39685618AEBAAB558C1D3CA8
:10011000B7CC5763BD6DEDFD753EF6177231BF006C
:100120000000803F2A2A506F737369626C652062F9
:10013000616C616E63652A2A0A00302E31002A2A1A
:1001400043616C6962726174652042616C616E63C7
:100150006520446F6E652A2A0A00302E31002A2A53
:1001600043656C6C2025692A2A0A002A2A4E6F20D2
:10017000636861726765206E656365737361727928
:100180002E2A2A0A003C70733C50353556432553BD
:100190004152473E3E0A002A2A426567696E204363
:1001A00043204368617267652A2A0A002A2A426549
:1001B00067696E204356204368617267652A2A0A80
:1001C000003C70733C533E3E0A003C616C3C49531A
:1001D00045542025533E3E0A003C616C3C4C4F4147
:1001E0004420313E3E0A002A2A426567696E204457
:1001F00069736368617267652A2A0A003C616C3C16
:100200004953455420303E3E0A003C616C3C4C4F03
:10021000414420303E3E0A002A2A426567696E202A
:100220006A757374206C6F6767696E672A2A0A00A3
:10023000302E31002A2A426567696E2050756C7332
:100240006520546573742A2A0A002A2A50756C7333
:1002500065207465737420646F6E652A2A0A002A0B
:100260002A426567696E20746F702062616C616EEE
:10027000636520696E697469616C20636861726787
:10028000652A2A0A00302E32002A2A426567696EE2
:1002900020746F702062616C616E63652A2A0A00A7
:1002A0002A2A426567696E2066696E616C20636800
:1002B000617267652A2A0A00302E32002A2A4265B6
:1002C00067696E206368617267652A2A0A00302EAA
:1002D00031002A2A456E64204368617267652A2AC4
:1002E0000A00302E35002A2A426567696E20466969
:1002F0006E642043617061636974792A2A0A003050
:100300002E3100302E31002A2A00257809002A2AB1
:100310000A00302E35002A2A446F6E652066696E09
:10032000642063617061636974792A2A0A002A2A49
:10033000426567696E204163746976652062616C0D
:10034000616E63652A2A0A002A2A446F6E6520734B
:10035000657475702E2020426567696E6E696E67E0
:10036000206163746976652062616C616E636520EB
:10037000546573742A2A0A002A2A42616C616E63EA
:1003800065727320656E67616765642A2A0A0030AA
:100390002E31002A2A446F6E652064697363686198
:1003A0007267652A2A0A002A2A426567696E204315
:1003B00068617267652A2A0A00302E31002A2A44B1
:1003C0006F6E65204163746976652042616C616E71
:1003D00063650A002A2A414443416C676F7269745D
:1003E000686D204572726F723A2025642A2A0A00CD
:1003F0002A2A4D756C7469706C69657220636F6E22
:100400007374616E74733A2000256C6420002A2A8C
:100410000A002A2A5761746368646F6720626974EE
:100420002C2073746F7070696E672A2A0A000A00A4
:100430002A2A496E697420646F6E652E2A2A0A0082
:100440002A2A4C6F6F702068616C74656420617437
:100450002025356C753A204572726F7220636F6487
:10046000653A2025642A2A0A002A2A457869742ACE
:100470002A0A002A2A54696D656F757420706F6CA2
:100480006C696E6720666F72204144432072657309
:10049000706F6E73652A2A0A002A2A4572726F727B
:1004A0003A20556E657870656374656420696E7472
:1004B0006572727570742A2A0A002A2A4572726F50
:1004C0007220736F6D652063656C6C2068617320AA
:1004D000756E646572206F72206F76657220766F1C
:1004E0006C74616765642A2A0A002A2A5761726E51
:1004F000696E673A20506563206D69736D6174633E
:10050000682A2A0A002A2A4C6F67206D6F64653AB0
:100510002025782A2A0A0025356C750900256409EA
:10052000002575090025366C6409000A002A2A4551
:1005300072726F7220736F6D652063656C6C2068DA
:10054000617320756E646572206F72206F766572BC
:1005500020766F6C74616765642A2A0A00D007DD13
:10056000084F099309A909B209B909C809D509E1D0
:1005700009EB09F309FB09030A0B0A120A190A20FD
:100580000A280A2F0A350A3D0A460A4F0A5B0A66FC
:100590000A750A860A9C0AB10AC30AEF0AD007DD67
:1005A000084F099309A909B209B909C809D509E190
:1005B00009EB09F309FB09030A0B0A120A190A20BD
:1005C0000A280A2F0A350A3D0A460A4F0A5B0A66BC
:1005D0000A750A860A9C0AB10AC30AEF0A2531691C
:1005E0002E25303375256309003C70733C5025314E
:1005F000692E25303369256356257352473E3E0ADE
:10060000003C70733C533E3E0A003C616C3C4953D5
:10061000455420303E3E0A003C616C3C4C4F414406
:1006200020303E3E0A003C70733C533E3E0A003C84
:10063000616C3C4953455420303E3E0A003C616C9D
:100640003C4C4F414420303E3E0A002A2A457869FE
:10065000742A2A0A000011241FBECFE5D8E0DEBFAD
:10066000CDBF10E0A0E6B0E0E4E2F7E502C00590FF
:100670000D92AA3BB107D9F722E0AAEBB0E001C086
:100680001D92A23CB207E1F70E9428160C94902B11
:100690000C940000CF93DF93CDB7DEB748E150E074
:1006A00060E070E088E192E00E94822A48E150E038
:1006B00068E170E08FEF91E00E94822A48E150E00B
:1006C00060E370E08CE690E00E94822A40E350E014
:1006D00068E470E08AEC91E00E94822ADF91CF9179
:1006E0000895EF92FF920F931F93CF93DF93CDB7AF
:1006F000DEB766970FB6F894DEBF0FBECDBF988BFE
:100700008F87698B4A8B19821A821B821C828FEF1A
:100710009FE79E838D8380E090E898878F83809108
:100720002101882F90E084709927009709F4E1C196
:100730008091FC01882F90E084709927009709F43C
:10074000D8C1809121018B7F809321018091FC0190
:100750008B7F8093FC018091BB00882F90E08130DB
:10076000910509F46DC18230910509F4A1C100978A
:1007700009F0BFC181E08A873BC08F859889FC0161
:1007800082819381FC018281938102966A850E9415
:1007900051149E878D878D859E85AA2797FDA095EC
:1007A000BA2F29813A814B815C81820F931FA41F4C
:1007B000B51F89839A83AB83BC832D853E858D814C
:1007C0009E812817390734F48D859E859E838D83FD
:1007D0008A8589872D853E858F8198858217930725
:1007E00024F48D859E8598878F838A858F5F8A877D
:1007F0008A858D3010F22F8138858D819E81281B4E
:10080000390B80916000909161002817390764F4DA
:100810002F8138858D819E817901E81AF90AC701F7
:1008200090936100809360008091600090916100DE
:10083000009721F08EE18093620003C084E18093F1
:10084000620029813A814B815C8184E690E0DC0181
:100850000E943828DC01CB0189839A83AB83BC8357
:1008600089819A81AB81BC812CE030E040E050E08E
:10087000BC01CD010E940428DA01C90189839A8351
:10088000AB83BC831092FE011092FD018FE30E94A6
:1008900031219C018D819E812817390714F082E057
:1008A00029C181E08B8759C09B858985981709F4F8
:1008B00051C08F859889FC0182819381FC018281DE
:1008C000938102966B850E9451149E878D872D859A
:1008D0003E8544E6429FC001439F900D11249C0138
:1008E000442737FD4095542F89819A81AB81BC8183
:1008F00082179307A407B5076CF52D853E858D817A
:100900009E81281B390B8A89882F90E082179307D4
:100910000CF58FE30E9431219C018D859E8528175F
:100920003907C4F48B85882F90E09C012150310950
:1009300081E090E002C0880F991F2A95E2F79C01A0
:100940008091FD019091FE01822B932B9093FE01EB
:100950008093FD018B858F5F8B878B858D3008F4AD
:10096000A3CF8091FD019091FE01009709F049C04D
:1009700081E08C8742C09C8589859817D9F18F8545
:100980009889FC0182819381FC0182819381029686
:100990006C850E9451149E878D872D853E858D81A3
:1009A0009E81281B390B8A89882F90E08217930734
:1009B0000CF58FE30E9431219C018D859E852817BF
:1009C0003907C4F48C85882F90E09C0121503109AF
:1009D00081E090E002C0880F991F2A95E2F79C0100
:1009E0008091FD019091FE01822B932B9093FE014B
:1009F0008093FD018C858F5F8C878C858D3008F40A
:100A0000BACF81E080935E018091FD019091FE015B
:100A1000009711F481E06EC080911D0190911E013C
:100A2000A0911F01B09120018093BC009093BD0064
:100A3000A093BE00B093BF0081E08093BB0059C07B
:100A400020911D0130911E0140911F015091200104
:100A50008091BC009091BD00A091BE00B091BF00FC
:100A6000281B390B4A0B5B0B80916200882F90E0AA
:100A7000A0E0B0E082179307A407B507C0F4809107
:100A80001D0190911E01A0911F01B0912001809342
:100A9000BC009093BD00A093BE00B093BF00109225
:100AA000FE011092FD0182E08093BB0022C021C0B4
:100AB00020911D0130911E0140911F015091200194
:100AC0008091BC009091BD00A091BE00B091BF008C
:100AD00079018A01E81AF90A0A0B1B0BD801C70130
:100AE0008F319105A105B10518F01092BB0000C02F
:100AF000000080E066960FB6F894DEBF0FBECDBF53
:100B0000DF91CF911F910F91FF90EF900895CF93B8
:100B1000DF9300D000D01F92CDB7DEB79C838B83CC
:100B20006D8381E089838B819C81FC01808191812F
:100B3000009749F08B819C81FC01808191810000AC
:100B40008F939F9308958B819C81FC018281938177
:100B50009093C3008093C2001092230182E390E03F
:100B600022E330E0F9012081277FFC0120838B8183
:100B70009C8145E060E00E9471038A838A81813014
:100B800009F062C084E291E00E9481281092C100C5
:100B90001092C0008B819C812AEC35E0FC013183EE
:100BA00020836AE070E080EC90E00E94AB08823025
:100BB00010F480E071C08B819C81FC018281938163
:100BC000FC018281938167E00E943212882309F43C
:100BD00055C08B819C81FC0182819381FC018281C3
:100BE00093816D810E947A23982F81E08927882341
:100BF000B9F01092C1001092C0008B819C812DEF42
:100C000035E0FC01318320838AE391E04D81BC0112
:100C100080EC90E00E943607823010F480E03CC007
:100C200082E390E022E330E0F90120812860FC01BA
:100C300020838EE391E00E9481288B819C81FC01BE
:100C40001182108282E028C08A818230B9F4109229
:100C5000C1001092C0008B819C812BE236E0FC0128
:100C6000318320838AE591E04D81BC0180EC90E0E6
:100C70000E943607823010F480E00EC019828B810A
:100C80009C812FE336E0FC01318320838981882316
:100C900011F481E001C06BCF0F900F900F900F9077
:100CA0000F90DF91CF910895CF93DF9300D01F92E3
:100CB000CDB7DEB79B838A8381E089838A819B815C
:100CC000FC0180819181009749F08A819B81FC0120
:100CD0008081918100008F939F93089580911D01E1
:100CE00090911E01A0911F01B09120018093C4003A
:100CF0009093C500A093C600B093C700A5C0109202
:100D0000C80098C080911D0190911E01A0911F0103
:100D1000B09120018093C4009093C500A093C600B9
:100D2000B093C7008091C800282F30E081E090E0A8
:100D300002C0880F991F2A95E2F79093FE018093D5
:100D4000FD0181E080935E018091C800282F30E092
:100D50008EE591E0432F4F932F93292F2F938F935D
:100D60000E945F280F900F900F900F908A819B81B7
:100D700026EB36E0FC01318320838091C400909102
:100D8000C500A091C600B091C7009C01AD012B5FCA
:100D90003F4F4F4F5F4F80911D0190911E01A091D9
:100DA0001F01B091200182179307A407B50710F423
:100DB00080E056C01092FE011092FD0181E0809308
:100DC0005E0180911D0190911E01A0911F01B091C3
:100DD00020018093C4009093C500A093C600B093F7
:100DE000C7008A819B8121EF36E0FC01318320839B
:100DF0008091C4009091C500A091C600B091C70039
:100E00009C01AD01225E3F4F4F4F5F4F80911D010E
:100E100090911E01A0911F01B091200182179307AC
:100E2000A407B50710F480E01BC08091C8008F5F55
:100E30008093C8008091C8008C3008F463CF809103
:100E4000C9008F5F8093C9008091C900853008F484
:100E500056CF19828A819B81FC011182108283E026
:100E60000F900F900F90DF91CF910895CF93DF9364
:100E700000D000D000D0CDB7DEB79B838A837D83BE
:100E80006C834E8381E089838A819B81FC01808110
:100E90009181009749F08A819B81FC018081918139
:100EA00000008F939F9308951092CA008091CA000A
:100EB000882F90E08130910509F453C0823091056C
:100EC00009F47EC0009709F090C01092FE011092C4
:100ED000FD0181E080935E01809121018D7F8093EF
:100EE00021018A819B8121E737E0FC013183208346
:100EF00080912101882F90E082709927009711F44A
:100F000080E081C08A819B81FC0182819381FC0108
:100F1000828193816E810E947A23882359F08BE627
:100F200091E00E9481288A819B81FC0111821082BC
:100F300082E069C085E891E02D812F932C812F9369
:100F4000292F2F938F930E945F280F900F900F905F
:100F50000F9087E991E00E94812881E08093CA0088
:100F600044C080912101882F90E0827099270097DA
:100F700031F1809121018D7F809321018A819B81B4
:100F8000FC0182819381FC01828193816E810E94A8
:100F90007A238823A1F08A819B81FC01828193813D
:100FA000FC018281938144E950E06CE00E941722A9
:100FB00082E08093CA008CEA91E00E94812815C0EB
:100FC00080911B0190911C018D3091056CF481EC96
:100FD00091E00E9481281092CA008A819B81FC01C5
:100FE0001182108282E00FC0000019828A819B81E9
:100FF00026EF37E0FC01318320838981882311F4B7
:1010000081E001C053CF26960FB6F894DEBF0FBE25
:10101000CDBFDF91CF910895CF93DF9300D000D063
:1010200000D0CDB7DEB79B838A837D836C834E83EC
:1010300081E089838A819B81FC0180819181009775
:1010400011F0000072C01092CB008091CB00882F6D
:1010500090E0009721F08130910591F165C08A817F
:101060009B81FC0182819381FC01828193816E814D
:101070000E94B923882339F08A819B81FC01118267
:10108000108282E05FC08AEC91E02D812F932C8149
:101090002F93292F2F938F930E945F280F900F90EB
:1010A0000F900F9089ED91E00E94812887EE91E0EA
:1010B0000E94812881E08093CB001092CC0034C044
:1010C00080912101882F90E082709927009759F133
:1010D0008A819B81FC0182819381FC0182819381C1
:1010E0006E810E94B9238823D9F08091CC00823090
:1010F00088F08CEF91E00E9481288AE092E00E94C3
:1011000081281092CB008A819B81FC011182108280
:1011100082E018C08091CC008F5F8093CC0003C028
:101120001092CC0000C0000019828A819B8125E9C1
:1011300038E0FC01318320838981882311F481E028
:1011400001C083CF26960FB6F894DEBF0FBECDBF89
:10115000DF91CF910895CF93DF9300D000D01F92FD
:10116000CDB7DEB79B838A837D836C8381E08983DF
:101170008A819B81FC0180819181009711F00000A0
:1011800010C080911D0190911E01A0911F01B0918E
:1011900020018093CD009093CE00A093CF00B09318
:1011A000D0008A819B8121ED38E0FC0131832083CE
:1011B0008C819D819C0140E050E08091CD00909118
:1011C000CE00A091CF00B091D000280F391F4A1F48
:1011D0005B1F80911D0190911E01A0911F01B09194
:1011E000200182179307A407B50710F480E006C01A
:1011F0008A819B81FC011182108282E00F900F9006
:101200000F900F900F90DF91CF910895EF92FF9282
:101210000F931F93CF93DF93CDB7DEB72A970FB607
:10122000F894DEBF0FBECDBF9E838D8381E089839E
:101230008D819E81FC0180819181009749F08D8193
:101240009E81FC018081918100008F939F9308957E
:101250008091D3009091D4002D813E81F9012281AB
:101260003381F90122813381FC01338322838D8113
:101270009E81FC0182819381FC018081882F90E016
:10128000AA2797FDA095BA2F40E050E02BE430E06C
:10129000841B950B2817390708F4B3C3865D9F4F4D
:1012A000FC010C94232880E480938400D5C30E9421
:1012B0004A0381E08093840088E192E00E948128C3
:1012C0008D819E81FC01828193812AE0FC01208333
:1012D000C3C31092D2001092D1008D819E812DE661
:1012E00039E0FC013183208380E392E040E0BC01DF
:1012F00081ED90E00E940C08823010F480E0BAC3C7
:101300000E947E248D819E81FC01828193812AE04E
:10131000FC012083A1C38DE0809384008D819E8198
:101320002EE839E0FC013183208380911D019091EA
:101330001E01A0911F01B091200186309105A105E9
:10134000B10510F480E096C384E392E00E94812806
:101350001092D2001092D1008D819E812CEA39E04A
:10136000FC013183208381ED90E00E94540682309D
:1013700010F480E07FC38AE492E00E9481288D818E
:101380009E81FC0182819381FC0110820E947E2457
:1013900063C30E944A038DE0809384001092D200C0
:1013A0001092D1008D819E8122ED39E0FC013183C4
:1013B000208362E070E081ED90E00E94AB08823013
:1013C00010F480E057C38FE592E00E9481281092CC
:1013D000D2001092D1008D819E812BEE39E0FC016C
:1013E0003183208385E892E04FEFBC0181ED90E0EE
:1013F0000E943607823010F480E03CC389E892E016
:101400000E9481281092D2001092D1008D819E817D
:1014100026E03AE0FC01318320836FEF81ED90E01C
:101420000E948705823010F480E024C380EA92E0B5
:101430000E9481281092D2001092D1008D819E814D
:101440002EE13AE0FC013183208388EB92E04FEFFC
:10145000BC0181ED90E00E943607823010F480E0FC
:1014600009C38D819E81FC0182819381FC011082E0
:101470000E947E24F1C28CEB92E00E94812810929F
:10148000D2001092D1008D819E8123E43AE0FC01CC
:10149000318320838EEC92E04FEFBC0181ED90E030
:1014A0000E943607823010F480E0E4C282ED92E0C0
:1014B0000E9481288D819E81FC0182819381FC01A3
:1014C00010820E947E24C8C28DE080938400109216
:1014D000D2001092D1008D819E812BE63AE0FC0172
:1014E000318320836EE170E081ED90E00E94AB08D3
:1014F000823010F480E0BEC28D819E812CE73AE0FC
:10150000FC013183208380912201882F90E0887034
:101510009927009711F480E0ADC21092D20010928A
:10152000D1008D819E8121E93AE0FC013183208345
:1015300082EE92E04FEFBC0181ED90E00E94360711
:10154000823010F480E096C286EE92E00E948128FC
:101550001092D2001092D1008D819E812CEA3AE047
:10156000FC01318320836CE370E081ED90E00E9408
:10157000AB08823010F480E07DC21092D20010924D
:10158000D1008D819E8121EC3AE0FC0131832083E2
:101590008FEF92E04FEFBC0181ED90E00E943607A3
:1015A000823010F480E066C21A8211C08A81882FCE
:1015B00090E0880F991F880F991F85519F4FFC015C
:1015C00010821182128213828A818F5F8A838A81BC
:1015D0008C3060F31092FE011092FD0181E0809347
:1015E0005E011092D2001092D1008D819E8125EF74
:1015F0003AE0FC01318320836CE370E081ED90E000
:101600000E94AB08823010F480E034C21092D20005
:101610001092D1008D819E812AE03BE0FC01318354
:10162000208383E093E040E0BC0181ED90E00E94E4
:101630000C08823010F480E01DC21092D20010928B
:10164000D1008D819E8121E23BE0FC01318320832A
:101650006CE370E081ED90E00E94AB08823010F402
:1016600080E008C287E093E00E9481281B8271C05D
:101670008B81882F90E0880F991F880F991F8551C3
:101680009F4FFC0180819181A281B3819C01AD01BA
:1016900081E09FEFDC010E944628DC01CB018093B2
:1016A000D5009093D600A093D700B093D8008B813B
:1016B00021E0280F8D819E81FC0182819381FC01B4
:1016C000828193810296622F0E9451140E943E20D3
:1016D0008093D9008B81082F10E08091D5009091E4
:1016E000D600A091D700B091D8002091D900222F28
:1016F00030E04FEF50E07A01E21AF30A97019901C6
:1017000040E050E0BC01CD010E94E227DA01C901AE
:101710009801220F331F220F331F26533E4FF9012A
:1017200080839183A283B3838091D900282F30E0F6
:101730008AE093E0432F4F932F93292F2F938F937A
:101740000E945F280F900F900F900F908B818F5FFA
:101750008B838B818C3008F48BCF8EE093E00E94DA
:10176000812819828D819E8122EB3BE0FC0131832F
:1017700020838981882311F481E07CC140E350E01B
:1017800068E470E08AEC91E00E94922A1092D20004
:101790001092D1008D819E812AEC3BE0FC013183C7
:1017A000208382E193E04FEFBC0181ED90E00E9445
:1017B0003607823010F480E05DC186E193E00E943C
:1017C00081280E947E248D819E81FC0182819381EB
:1017D000FC01108241C10E944A031092BA008EE2BD
:1017E00093E00E94812888E493E00E94812810926F
:1017F000D2001092D1008D819E812BEF3BE0FC0145
:10180000318320836CE370E081ED90E00E94AB08AF
:10181000823010F480E02EC183E08093BA0088E724
:1018200093E00E9481281092D2001092D1008D8105
:101830009E8127E13CE0FC01318320836CE370E072
:1018400081ED90E00E94AB08823010F480E012C17C
:101850001092D2001092D1008D819E812CE23CE04A
:10186000FC013183208368E572E081ED90E00E9405
:10187000AB08823010F480E0FDC01092D2001092CC
:10188000D1008D819E8121E43CE0FC0131832083E5
:101890008FE893E049E1BC0181ED90E00E940C08E3
:1018A000823010F480E0E6C083E993E00E94812852
:1018B0001092D2001092D1008D819E812CE53CE0E7
:1018C000FC013183208368E572E081ED90E00E94A5
:1018D000AB08823010F480E0CDC087EA93E00E942C
:1018E00081281092D2001092D1008D819E8125E72F
:1018F0003CE0FC013183208389EB93E045EEBC01A1
:1019000081ED90E00E943607823010F480E0B2C092
:101910001092D2001092D1008D819E812CE83CE083
:10192000FC013183208368E572E081ED90E00E9444
:10193000AB08823010F480E09DC082E08093BA0052
:101940008DEB93E00E9481280E947E2485C08DE06B
:10195000809384008FE70E9431218C831092DA00FB
:101960004AC08091DA00282F30E081E090E002C088
:10197000880F991F2A95E2F79093FE018093FD014D
:1019800080911D0190911E01A0911F01B091200135
:101990008093DB009093DC00A093DD00B093DE0029
:1019A0008D819E8120ED3CE0FC01318320832091DC
:1019B0001D0130911E0140911F0150912001809125
:1019C000DB009091DC00A091DD00B091DE00790198
:1019D0008A01E81AF90A0A0B1B0BD801C7018F31DB
:1019E0009105A105B10510F480E044C08091DA00B2
:1019F0008F5F8093DA008091DA008C3008F4B1CFE9
:101A0000ADCF8DE480936B000E941D2482E390E0B3
:101A100022E330E0F90120812F7EFC01208382E364
:101A200090E022E330E0F90120812B7FFC0120834C
:101A300080916B00282F30E084ED93E0432F4F938B
:101A40002F93292F2F938F930E945F280F900F9031
:101A50000F900F9001C0000019828D819E812DE2B0
:101A60003DE0FC01318320838981882311F481E0EA
:101A700001C0FDCB2A960FB6F894DEBF0FBECDBFD6
:101A8000DF91CF911F910F91FF90EF900895CF922A
:101A9000DF92EF92FF920F931F93CF93DF93CDB717
:101AA000DEB727970FB6F894DEBF0FBECDBF9F837A
:101AB0008E8381E089838E819F81FC018081918169
:101AC000009749F08E819F81FC0180819181000007
:101AD0008F939F9308958091BA00882F90E0813072
:101AE000910509F451C08230910524F4009709F45E
:101AF000D2C2CBC28230910521F08330910559F0DA
:101B0000C4C2109223011092BA00809184008F7D8C
:101B100080938400C1C20E94841280EF93E00E94EF
:101B200081281A8226C08A81882F90E0880F991F09
:101B3000880F991F86569E4FFC0180819181A2815A
:101B4000B38129E034E04B2F4F934A2F4F93492F15
:101B50004F938F93832F8F93822F8F930E945F28B1
:101B60000F900F900F900F900F900F908A818F5FC2
:101B70008A838A818C30B8F28EE094E00E948128BA
:101B800081E08093BA0088C281E08093230180E0E5
:101B900090E0A0E8B0E08093630090936400A0938D
:101BA0006500B09366008FEF9FEFAFE7BFE78093CC
:101BB000670090936800A0936900B0936A008091D9
:101BC0008400806280938400809184008860809388
:101BD00084008E819F8129EE3DE0FC0131832083CA
:101BE00080912201882F90E080729927009711F44C
:101BF00080E060C2809122018F7D809322018091DC
:101C00001B0190911C01AA2797FDA095BA2FBC013A
:101C1000CD010E940026DC01CB0120E030E043E250
:101C200053E4BC01CD010E943425DC01CB0180933B
:101C3000DF009093E000A093E100B093E2008FEF0B
:101C40009FEFAFE7BFEF8093630090936400A09392
:101C50006500B09366001B8271C08B81882F90E075
:101C6000880F991F880F991F86569E4FFC0180810F
:101C70009181A281B381BC01CD010E940026DC01CB
:101C8000CB012091DF003091E0004091E1005091C4
:101C9000E200BC01CD010E944927DC01CB016C01AF
:101CA0007D018B81882F90E0880F991F880F991FE5
:101CB00086569E4FFC0180819181A281B381BC0137
:101CC000CD010E940026DC01CB019C01AD01C701C2
:101CD000B6010E943425DC01CB018093E300909390
:101CE000E400A093E500B093E6008091E3009091BA
:101CF000E400A091E500B091E600209163003091EE
:101D000064004091650050916600BC01CD010E94C5
:101D1000D526181684F48091E3009091E400A091F8
:101D2000E500B091E6008093630090936400A09377
:101D30006500B09366008B818F5F8B838B818C30C5
:101D400008F48BCF8FEF9FEFAFE7BFE7809367007B
:101D500090936800A0936900B0936A00B7C0809127
:101D6000630090916400A0916500B091660080933B
:101D7000670090936800A0936900B0936A008FEFAA
:101D80009FEFAFE7BFEF8093E7009093E800A09349
:101D9000E900B093EA001C8285C0C090DF00D090BB
:101DA000E000E090E100F090E2008091630090910B
:101DB0006400A0916500B091660020E030E040EF43
:101DC00051E4BC01CD010E944927DC01CB0120E098
:101DD00030E048EC52E4BC01CD010E943425DC0126
:101DE000CB019C01AD01C701B6010E94CB24DC01EF
:101DF000CB016C017D018C81882F90E0880F991FA9
:101E0000880F991F86569E4FFC0180819181A28187
:101E1000B381BC01CD010E940026DC01CB019C01F5
:101E2000AD01C701B6010E944927DC01CB0120E0CA
:101E300030E44CE156E4BC01CD010E943425DC01C4
:101E4000CB018093E3009093E400A093E500B0936E
:101E5000E6008091E3009091E400A091E500B0914C
:101E6000E6002091E7003091E8004091E9005091B0
:101E7000EA00BC01CD010E94D526181684F4809199
:101E8000E3009091E400A091E500B091E60080931A
:101E9000E7009093E800A093E900B093EA008C81FA
:101EA0008F5F8C838C818C3008F477CF8091E70032
:101EB0009091E800A091E900B091EA00809363005E
:101EC00090936400A0936500B093660080916700D2
:101ED00090916800A0916900B0916A002091630020
:101EE000309164004091650050916600BC01CD01C5
:101EF0000E94CB24DC01CB01BF772FE632E143E81F
:101F00005AE3BC01CD010E94D52618160CF427CF48
:101F10001D82B6C0C090DF00D090E000E090E100EC
:101F2000F090E2008091630090916400A0916500C0
:101F3000B091660020E030E040EF51E4BC01CD01FB
:101F40000E944927DC01CB0120E030E048EC52E45C
:101F5000BC01CD010E943425DC01CB019C01AD0107
:101F6000C701B6010E94CB24DC01CB016C017D01CD
:101F70008D81882F90E0880F991F880F991F8656B2
:101F80009E4FFC0180819181A281B381BC01CD0172
:101F90000E940026DC01CB019C01AD01C701B60106
:101FA0000E944927DC01CB0120E030E44CE156E4FB
:101FB000BC01CD010E943425DC01CB018093E300FC
:101FC0009093E400A093E500B093E6008091E300D5
:101FD0009091E400A091E500B091E60020916300AB
:101FE000309164004091650050916600BC01CD01C4
:101FF0000E94D526181644F48D81882F90E08055D4
:102000009D4FFC01108239C08D81082F10E0809116
:10201000630090916400A0916500B09166002091EA
:10202000E3003091E4004091E5005091E600BC01EE
:10203000CD010E94CB24DC01CB012EEF34ED48EF23
:102040005EE3BC01CD010E943425DC01CB0120E020
:1020500030E04FE753E4BC01CD010E944927DC0189
:10206000CB01BC01CD010E94D225DC01CB01282F80
:10207000C80180559D4FFC0120838D818F5F8D832A
:102080008D818C3008F446CF07C081E580936B00CA
:102090000E941D2401C0000019828E819F812DE4C1
:1020A00030E1FC01318320838981882311F481E0B0
:1020B00001C011CD27960FB6F894DEBF0FBECDBF7D
:1020C000DF91CF911F910F91FF90EF90DF90CF9014
:1020D00008958F929F92AF92BF92CF92DF92EF922C
:1020E000FF92CF93DF9300D000D01F92CDB7DEB721
:1020F0009C838B836D838B819C8102966D810E9472
:1021000051149A8389838D81882F90E00197880FDD
:10211000991F81509E4FFC0180819181CC01A0E0EC
:10212000B0E0BC01CD010E94FE25DC01CB0120E026
:1021300030E048EC52E4BC01CD010E943425DC01C2
:10214000CB016C017D018D81882F90E00197880F74
:10215000991F81509E4FFC0180819181CC01A0E0AC
:10216000B0E0BC01CD010E94FE254B015C018D81D8
:10217000882F90E00197880F991F84599F4FFC0189
:1021800080819181CC01A0E0B0E0BC01CD010E9432
:10219000FE25DC01CB019C01AD01C501B4010E940B
:1021A0004927DC01CB019C01AD0160E070E48CE1CA
:1021B00096EC0E943425DC01CB01BC01CD010E94CC
:1021C000A125DC01CB019C01AD0160E070E080E85D
:1021D0009FE30E94CB24DC01CB019C01AD01C70130
:1021E000B6010E944927DC01CB012D81222F30E06E
:1021F00021503109220F331F220F331F2A5D3E4F1A
:10220000F9012081318142815381BC01CD010E94BD
:102210004927DC01CB01BC01CD010E94CD25DC01A9
:10222000CB0129813A81820F931F9A838983898107
:102230009A810F900F900F900F900F90DF91CF9198
:10224000FF90EF90DF90CF90BF90AF909F908F90D6
:102250000895CF92DF92EF92FF920F931F93CF9347
:10226000DF9300D000D0CDB7DEB79C838B8381E0B5
:1022700089838B819C81FC0180819181009711F081
:102280000000D6C00E944A038091FC01882F90E094
:1022900088709927009709F4CAC080912201882F7D
:1022A00090E080719927009709F4C1C08091FC01EA
:1022B000877F8093FC01809122018F7E8093220191
:1022C00081E08A83B0C08A81882F90E08C01015020
:1022D00011098A81882F90E00197880F991F8150FA
:1022E0009E4FFC01408151818A81882F90E00197A7
:1022F000880F991F84599F4FFC0120813181429F93
:10230000C001439F900D529F900D1124CC01A0E07D
:10231000B0E0BC01CD010E94FE25DC01CB019C0197
:10232000AD0160E070E48CE196EC0E943425DC01A4
:10233000CB01BC01CD010E94A125DC01CB012A818A
:10234000222F30E021503109220F331F220F331F7B
:102350002A5D3E4FF9012081318142815381BC01C8
:10236000CD010E944927DC01CB016C017D018091E8
:102370001B0190911C01AA2797FDA095BA2FBC01C3
:10238000CD010E940026DC01CB019C01AD01C701FB
:10239000B6010E94CC24DC01CB019801220F331F2F
:1023A000220F331F2A5D3E4FF90180839183A28360
:1023B000B3838091FD019091FE012A812150BC01DF
:1023C000822F0E94FA23882359F18A81882F90E076
:1023D0008C01015011098A81882F90E00197880FA4
:1023E000991F880F991F8A5D9E4FFC018081918102
:1023F000A281B3812EE93FE64EE952E4BC01CD0152
:102400000E94CB24DC01CB019801220F331F220F45
:10241000331F2A5D3E4FF90180839183A283B383EA
:102420008A818F5F8A838A818D3008F44CCF19822C
:102430008B819C8128E132E1FC01318320838981F9
:10244000882311F481E001C01FCF0F900F900F90EF
:102450000F90DF91CF911F910F91FF90EF90DF9040
:10246000CF900895CF93DF93CDB7DEB72A970FB6FD
:10247000F894DEBF0FBECDBF998788876A878FEF3C
:102480009FE79A8389831C821B8281E08D8321C010
:102490008885998502966D810E9451149F838E8351
:1024A0002E813F8189819A812817390724F48E81F2
:1024B0009F819A8389832E813F818B819C818217A2
:1024C000930724F48E819F819C838B838D818F5F02
:1024D0008D838D818D30E0F22B813C8189819A81C1
:1024E000281B390B8A85882F90E08217930714F4F4
:1024F00080E001C081E02A960FB6F894DEBF0FBEDF
:10250000CDBFDF91CF910895CF92DF92EF92FF92EE
:102510000F931F93CF93DF93CDB7DEB7CE55D1097D
:102520000FB6F894DEBF0FBECDBF8FEF9FEFDC017B
:1025300089839A83AB83BC8380E3EAECF1E0DE011C
:10254000959601900D928A95E1F7CE0185966CE003
:102550000E94C92281E090E09A8B898BBCC01D82C9
:102560001E821F82188619861A861B861C868989F8
:102570009A899C8B8B8B1EC08B899C89880F991F95
:10258000880F991F86539E4FFC0180819181A28103
:10259000B3812D813E814F815885820F931FA41FE7
:1025A000B51F8D839E83AF83B8878B899C890196E5
:1025B0009C8B8B8B8B899C898C309105ECF21E8ACD
:1025C0001D8A1EC08D899E89880F991F880F991FAB
:1025D00086539E4FFC0180819181A281B381298520
:1025E0003A854B855C85820F931FA41FB51F898791
:1025F0009A87AB87BC878D899E8901969E8B8D8B30
:1026000089899A899C01215031098D899E89821777
:102610009307C4F22D813E814F81588586E490E076
:10262000DC010E943828DC01CB0124E630E040E0E8
:1026300050E0BC01CD010E94E227DA01C9019C01F2
:10264000AD0189859A85AB85BC8579018A01E80E43
:10265000F91E0A1F1B1F89899A899C01285F3F4F19
:1026600049895A8966E4649FC001659F900D1124D1
:1026700044E650E0BA010E94CE27CB01A901481BD5
:10268000590BCA019C01442737FD4095542FC801BE
:10269000B7010E94E227DA01C9018D879E87AF87C3
:1026A000B88B2D853E854F85588989819A81AB816C
:1026B000BC81281739074A075B0740F48D859E8542
:1026C000AF85B88989839A83AB83BC8389899A89CA
:1026D00001969A8B898B89899A898D3091050CF4A2
:1026E0003ECF1D8E1E8E1F8E18A280E090E0A0E4CB
:1026F000B1E489A39AA3ABA3BCA31F8A188E198E39
:102700001A8E1B8E1DC08B8D882F90E0880F991F0D
:10271000880F991F86539E4FFC0180819181A28171
:10272000B3812F89388D498D5A8D820F931FA41F35
:10273000B51F8F8B988FA98FBA8F8B8D8F5F8B8FE3
:102740008B8D8C3000F36F89788D898D9A8D0E94E6
:102750000026DC01CB0189A39AA3ABA3BCA36D85A2
:102760007E858F8598890E94FE25DC01CB019C0126
:10277000AD0169A17AA18BA19CA10E943425DC0145
:10278000CB0189A39AA3ABA3BCA31C8E76C08C8D6E
:10279000882F90E0880F991F880F991F86539E4FAE
:1027A000FC0180819181A281B381BC01CD010E9495
:1027B0000026DC01CB019C01AD0160E070E080E807
:1027C0009FE30E94CB24DC01CB016C017D01F7FA71
:1027D000F094F7F8F0946D857E858F8598890E9436
:1027E000FE25DC01CB019C01AD01C701B6010E94B1
:1027F0003425DC01CB018D8F9E8FAF8FB8A32DEDDB
:1028000033E24DEA5DE369A17AA18BA19CA10E940C
:102810004927DC01CB019C01AD016D8D7E8D8F8D33
:1028200098A10E94CC24DC01CB018D8F9E8FAF8FAD
:10283000B8A38C8D082F10E020E030E44CE156E482
:102840006D8D7E8D8F8D98A10E944927DC01CB0173
:10285000BC01CD010E94CD25DC01CB019801220FE6
:10286000331F220F331F26563E4FF9018083918379
:10287000A283B3838C8D8F5F8C8F8C8D8C3008F40A
:1028800086CFC25ADF4F0FB6F894DEBF0FBECDBF62
:10289000DF91CF911F910F91FF90EF90DF90CF903C
:1028A0000895CF93DF93CDB7DEB72A970FB6F8948C
:1028B000DEBF0FBECDBF998788876A878A85882348
:1028C00019F08A858D3018F080E090E066C08A8526
:1028D00081708823B1F088E089831A828FEF8C831E
:1028E0008FE08B838A85882F90E0019799230CF4E1
:1028F000019695958795982F892F880F890F8D833D
:1029000017C084E0898384E08A8380EF8C838FEF13
:102910008B838A85882F90E0029799230CF4019687
:1029200095958795982F892F880F890F8F5F8D83B5
:102930008D81882F90E028853985820F931FFC01B7
:1029400090818C818923882F90E02A81332727FD6D
:102950003095AC0102C0559547952A95E2F79A014A
:102960008D81882F90E0019648855985840F951FA9
:10297000FC0190818B818923882F90E04981442F2D
:1029800050E0042E02C0880F991F0A94E2F7820FCC
:10299000931F9F838E838E819F812A960FB6F89412
:1029A000DEBF0FBECDBFDF91CF910895CF93DF93F0
:1029B000CDB7DEB727970FB6F894DEBF0FBECDBFF9
:1029C0009E838D836F8319821B821A823AC08A810B
:1029D0009B812D813E81820F931FFC019081898113
:1029E00089278C838C81882F90E0880F991F982FDE
:1029F0008C81292F28278C81882F90E0880F991FA0
:102A0000880F991F922F98278C8182958F708C70D8
:102A100098278C81829586958770827098278C8103
:102A20008295869586958370817098278C81881F02
:102A30008827881F892789838A819B8101969B83A8
:102A40008A838F81282F30E08A819B8182179307A8
:102A50000CF4BDCF898127960FB6F894DEBF0FBE68
:102A6000CDBFDF91CF9108951F920F9200905F002C
:102A70000F9211242F933F938F939F93EF93FF9384
:102A8000CF93DF931F92CDB7DEB79091FB0180917A
:102A900017029817A1F0809117028F5F8F778983B3
:102AA0008981809317028CE290E02981222F30E007
:102AB000205D3D4FF9012081FC01208309C08AE29D
:102AC00090E02AE230E0F90120812F7DFC01208393
:102AD0000F90DF91CF91FF91EF919F918F913F9157
:102AE0002F910F9000925F000F901F901895CF9339
:102AF000DF9300D000D0CDB7DEB78A837C836B83B1
:102B00008A818A3031F48B819C81BC018DE00E94E6
:102B100077158091FB018F5F8F778983000080910B
:102B2000170299819817D9F38981882F90E0805DE9
:102B30009D4F2A81FC01208389818093FB018AE2D9
:102B400090E02AE230E0F90120812062FC0120833C
:102B500080E090E00F900F900F900F90DF91CF9159
:102B60000895CF93DF9300D0CDB7DEB787E390E031
:102B700027EBFC0120838DE290E02EEDFC01208309
:102B80008EE290E021E0FC01208388E390E028E3DE
:102B900030E0F90120812061FC0120838EE490E087
:102BA00025E0FC01208389E590E02CE1FC012083F5
:102BB0008CE490E0FC01808191819A8389838AE48E
:102BC00090E029813A812453304EFC0131832083E7
:102BD00086E290E020E8FC01208387E290E020EC90
:102BE000FC01208381E390E02CE1FC01208382E35F
:102BF00090E022E330E0F90120812C61FC01208388
:102C000089E290E024E3FC0120838BE290E02BE258
:102C100030E0F90120812260FC0120838AE290E00B
:102C20002AE230E0F90120812860FC012083109223
:102C300017021092FB01789485E890E09093BF0210
:102C40008093BE0278940F900F90DF91CF910895FA
:102C5000CF93DF93CDB7DEB7AF970FB6F894DEBF53
:102C60000FBECDBF84E590E0FC018081882F90E00D
:102C700088709927009761F00E94B1150E941D2469
:102C80008BE080936B0082E194E00E948128FFCF6B
:102C900084E590E024E530E0F9012081277FFC0104
:102CA000208388E10FB6F894809341001092410090
:102CB0000FBE0E94B11582E390E022E330E0F901FB
:102CC00020812B7FFC01208382E390E022E330E02F
:102CD000F9012081277FFC01208382E390E022E339
:102CE00030E0F90120812F7EFC01208388E390E011
:102CF00028E330E0F90120812160FC01208388E392
:102D000090E028E330E0F90120812460FC01208379
:102D100086E290E026E230E0F90120812064FC01A7
:102D200020838EE294E00E94812888E08E8BCE0181
:102D30000196998F888FCE0146969D8F8C8F1B8E22
:102D40001A8ECE01019699A388A31F8E1E8ECE01E6
:102D500001969DA38CA31BA21AA2CE01019699A74E
:102D600088A71FA21EA21BA61AA61DA61CA61FA6E8
:102D70001EA6888D998D69E10E94B923000080917B
:102D80001D0190911E01A0911F01B091200100979B
:102D9000A105B105A1F3A89588E190E02EE00FB65A
:102DA000F894A895809341000FBE2093410082E3E0
:102DB00090E022E330E0F90120812460FC012083CF
:102DC00082E390E022E330E0F90120812860FC01F9
:102DD000208382E390E022E330E0F901208120614A
:102DE000FC01208380E394E00E948128A8958091D3
:102DF0006B008130E9F4CE0182960E94A419CE01C5
:102E000086960E94181DCE018A960E940A1ECE0147
:102E10008C960E942911CE014A960E940609CE0185
:102E20008E960E94470DCE014E960E949C1BDECFCF
:102E30000E941D2480916B00482F50E080911D015D
:102E400090911E01A0911F01B091200120E434E077
:102E5000652F6F934F934B2F4F934A2F4F93492FCB
:102E60004F938F93832F8F93822F8F930E945F288E
:102E70008DB79EB708960FB6F894DEBF0FBECDBFD4
:102E800089E694E00E9481288FEF80932101CE0192
:102E900082960E94A4198FEF809321018FEF809377
:102EA0002201CE014E960E949C1BA895FECF1F9238
:102EB0000F9200905F000F9211242F933F934F9336
:102EC0005F938F939F93EF93FF93CF93DF931F9223
:102ED000CDB7DEB780915D01882381F02091570145
:102EE0003091580180915A01882F90E0820F931FF2
:102EF0002FE230E0F9012081FC01208380915A010A
:102F00008F5F80935A0190915A01809159019817CF
:102F100088F48FE290E04091570150915801209140
:102F20005A01222F30E0240F351FF9012081FC01C6
:102F3000208323C086E390E0FC0180818983809117
:102F40005C01882379F08981882F90E0807499272B
:102F5000082E892F000C881F990B000C881F991FC1
:102F600080935B0188E390E028E330E0F901208161
:102F70002061FC012083109256010F90DF91CF91C8
:102F8000FF91EF919F918F915F914F913F912F9181
:102F90000F9000925F000F901F9018951F920F9254
:102FA00000905F000F9211242F933F934F935F93F4
:102FB0006F937F938F939F93AF93BF93EF93FF9301
:102FC000CF93DF9300D01F92CDB7DEB78CE490E0B3
:102FD000FC01808191819B838A838AE490E02A812D
:102FE0003B812453304EFC013183208380911D01AD
:102FF00090911E01A0911F01B09120010196A11D89
:10300000B11D80931D0190931E01A0931F01B093E9
:1030100020018FEF8093FC0119822CC08981682FD9
:1030200070E08981882F90E0880F991F880F991F81
:1030300085519F4FFC0120813181428153818091D4
:103040001B0190911C01AA2797FDA095BA2F820F12
:10305000931FA41FB51F9B01220F331F220F331F85
:1030600025513F4FF90180839183A283B3838981E6
:103070008F5F898389818C3088F20F900F900F9039
:10308000DF91CF91FF91EF91BF91AF919F918F9180
:103090007F916F915F914F913F912F910F9000928F
:1030A0005F000F901F9018951F920F9200905F0085
:1030B0000F921124CF93DF93CDB7DEB7DF91CF917D
:1030C0000F9000925F000F901F9018951F920F9223
:1030D00000905F000F9211242F933F934F935F93C3
:1030E0006F937F938F939F93AF93BF93EF93FF93D0
:1030F000CF93DF93CDB7DEB76E97DEBFCDBF88E14C
:10310000EAE9F0E0DE01179601900D928A95E1F769
:103110008CE490E0FC01808191819E838D8388E422
:1031200090E02D813E81225D3C4FFC013183208364
:103130008FEF8093FA0180912301813009F071C0F3
:103140001A8219821B8263C08B81882F90E0880FBE
:10315000991F815A9E4FFC01208131818B81882FDC
:1031600090E0880F991FAE014F5F5F4F840F951F4E
:103170000696FC018081918128173907A8F48B817C
:10318000882F90E09C01220F331F215A3E4FF901F6
:10319000208131812F5F3F4F880F991F815A9E4FA9
:1031A000FC01318320830AC08B81882F90E0880F37
:1031B000991F815A9E4FFC01118210828B81882FAA
:1031C00090E0880F991F815A9E4FFC012081318128
:1031D0008B81882F90E080559D4FFC018081882F46
:1031E00090E02817390780F48B81282F30E081E0A8
:1031F00090E002C0880F991F2A95E2F729813A8151
:10320000822B932B9A8389838B818F5F8B838B8116
:103210008C3008F499CF89819A819093FE01809334
:10322000FD011C822CC08091FD019091FE01BC012A
:103230008C810E94FA238823F9F08C81282F30E0BA
:103240008C81882F90E0880F991F880F991F8551D6
:103250009F4FFC0180819181A281B3810797A109D1
:10326000B109220F331F220F331F25513F4FF901A0
:1032700080839183A283B3838C818F5F8C838C81C5
:103280008C3088F26E960FB6F894DEBF0FBECDBFBD
:10329000DF91CF91FF91EF91BF91AF919F918F916E
:1032A0007F916F915F914F913F912F910F9000927D
:1032B0005F000F901F901895CF93DF9300D000D040
:1032C000CDB7DEB79A8389836B834C8389819A81DA
:1032D00090935801809357018B81809359011092EC
:1032E0005B018C81882F90E08170992721E0009705
:1032F00009F420E020935C0181E080935601109254
:103300005A018C81882F90E08270992721E00097E4
:1033100009F420E020935D0188E390E028E330E0A9
:10332000F90120812F7EFC0120838FE290E029812A
:103330003A81F9012081FC0120830F900F900F90BA
:103340000F90DF91CF910895EF92FF920F931F930B
:10335000CF93DF9300D01F92CDB7DEB79B838A83D4
:1033600081E089838A819B81FC0180819181009722
:1033700011F00000CAC181E18093780110927901B7
:1033800010927A0110927B0180EC80937D0180E79E
:1033900080937C0181E0809377018091560188239E
:1033A00009F0B2C180919300882F90E0AA2797FD81
:1033B000A095BA2F41E050E027E030E0841B950B48
:1033C0002817390708F4A0C18A589F4FFC010C94B4
:1033D000232881E08093770140E067E087E791E070
:1033E0000E945C1982E0809393008EC180915E01FF
:1033F0008823F1F010925E018091FD019091FE0111
:103400008093790180917A01807F80937A01209165
:103410007A018091FD019091FE0188279F70892F8C
:103420009927822B80937A0181E08093930070C06A
:103430008091FC01882F90E082709927009721F4F9
:1034400080912401882399F18091FA018D7F8093E6
:10345000FA011092240110927E0110927F0181E006
:10346000809325018091FC018D7F8093FC0180E198
:103470008093810185E88093800140E062E080E8EC
:1034800091E00E945C1983E08093930080911D017C
:1034900090911E01A0911F01B091200180938201A3
:1034A00090938301A0938401B093850131C08091F2
:1034B000FA01882F90E082709927009749F1809156
:1034C0007E018F5F80937E018091FA018D7F8093D2
:1034D000FA0180917E018A3058F010927901809132
:1034E0007A01807F80937A0181E08093930010C0FD
:1034F00080E58093810185E88093800141E062E06E
:1035000080E891E00E945C1984E080939300FCC005
:10351000FBC080915B01882321F082E080939300BF
:10352000F3C08CE08093870185E88093860142E0B8
:1035300065E086E891E00E945C1986E08093930044
:10354000E3C080915B018823A1F580E48093810131
:1035500085E88093800141E062E080E891E00E948C
:103560005C1983E08093930020911D0130911E012E
:1035700040911F015091200180918201909183011F
:10358000A0918401B091850179018A01E81AF90AB4
:103590000A0B1B0BD801C70186309105A105B105A7
:1035A00028F183E794E00E9481288CE180936B00EE
:1035B000ABC08A819B81FC018281938125E8FC015B
:1035C00020838A819B81FC018281938124E0FC011C
:1035D00021838A819B81FC018281938142E065E1A4
:1035E0000E945C1987E0809393008EC08DC080910B
:1035F0008801882381F480918901882361F4809176
:103600008A01882341F489E994E00E94812881E0BD
:10361000809393002EC080911D0190911E01A09176
:103620001F01B091200186309105A105B105C0F0C0
:1036300080918B018630A0F00E941D2482E390E0EF
:103640002BEFFC0120838AEB94E00E9481281092EA
:10365000FC018AE180936B0088E08093930009C0AD
:1036600080918B018F5F80938B0181E08093930029
:103670004BC04AC08A819B81FC0182819381029662
:1036800062E10E94D614282F8A819B81FC018281ED
:103690009381FC018489281739F188E390E028E3BD
:1036A00030E0F901308122E02327FC0120838AEEFB
:1036B00094E00E94812880918C018B3028F08BE16E
:1036C00080936B000E941D2480918C018F5F8093FA
:1036D0008C01109221018091FC0182608093FC0199
:1036E00082E08093930010C010928B0110928C01A5
:1036F0008FEF809321011092250181E080935E017C
:1037000082E080939300000019828A819B8125E8E2
:103710003BE1FC01318320838981882311F481E01E
:1037200001C03BCE0F900F900F90DF91CF911F9172
:103730000F91FF90EF900895CF93DF93CDB7DEB751
:1037400029970FB6F894DEBF0FBECDBF9D838C8343
:1037500081E089838C819D81FC018081918100972A
:1037600011F000004FC19091840080918D01981755
:10377000B1F08091840080938D0180918400282F86
:1037800030E085E095E0432F4F932F93292F2F931F
:103790008F930E945F280F900F900F900F90809151
:1037A0002101882F90E081709927009709F429C1A1
:1037B00080912201882F90E082709927009709F468
:1037C00020C180918400803409F41BC18091FC01E8
:1037D0008E7F8093FC01809121018E7F8093210157
:1037E000809122018D7F8093220180911D01909113
:1037F0001E01A0911F01B091200127E135E04B2F60
:103800004F934A2F4F93492F4F938F93832F8F932B
:10381000822F8F930E945F280F900F900F900F9030
:103820000F900F9080918400882F90E084709927EA
:103830000097A1F08091FD019091FE01292F2F9317
:103840008F9382EB90E0892F8F9382EB90E08F93A0
:103850000E944B280F900F900F900F908091840042
:10386000882F90E0887099270097A1F080911B0124
:1038700090911C01292F2F938F9386EB90E0892F35
:103880008F9386EB90E08F930E944B280F900F90C0
:103890000F900F9081E090E09B838A83A3C080917A
:1038A0008400882F90E081709927009761F02A8129
:1038B0008C819D81FC01828193810296622F0E94FE
:1038C00051140E94BB2180918400882F90E0827067
:1038D0009927009759F02A818C819D81FC01828172
:1038E0009381622F0E9469100E94BB218091840005
:1038F000882F90E080719927009719F18A819B8128
:103900000197880F991F880F991F8A5D9E4FFC01B0
:1039100080819181A281B381BC01CD010E94CD251E
:10392000DC01CB019C018DE195E0432F4F932F9358
:10393000292F2F938F930E945F280F900F900F9045
:103940000F9080918400882F90E0807299270097D3
:10395000B9F08A819B81019780559D4FFC01808140
:10396000282F30E081E295E0432F4F932F93292FAA
:103970002F938F930E945F280F900F900F900F90BE
:103980008A819B810197880F991F880F991F855104
:103990009F4FFC0180819181A281B38123EA30E0B5
:1039A00040E050E0BC01CD010E940428DA01C901C9
:1039B00025E235E04B2F4F934A2F4F93492F4F93DA
:1039C0008F93832F8F93822F8F930E945F280F9066
:1039D0000F900F900F900F900F908A819B8101960E
:1039E0009B838A838A819B818D3091050CF457CF0C
:1039F0008BE295E0292F2F938F930E945F280F90E1
:103A00000F9019828C819D8122E03DE1FC01318380
:103A100020838981882311F481E001C0A4CE2996F6
:103A20000FB6F894DEBF0FBECDBFDF91CF910895E2
:103A3000EF92FF920F931F93CF93DF9300D000D0AC
:103A40001F92CDB7DEB79D838C8381E089838C8103
:103A50009D81FC0180819181009711F00000C1C01F
:103A600080911D0190911E01A0911F01B091200134
:103A700080938E0190938F01A0939001B093910158
:103A800080912101882F90E088709927009709F490
:103A90007AC080911D0190911E01A0911F01B091EB
:103AA000200186309105A105B10508F46CC0809114
:103AB0002101877F8093210180911D0190911E013A
:103AC000A0911F01B091200180938E0190938F01EE
:103AD000A0939001B093910181E090E09B838A8351
:103AE0004AC02A818C819D81FC018281938102964A
:103AF000622F0E94511490939301809392018091C0
:103B00009201909193018730F7E09F0744F08091F4
:103B100092019091930189300CE090073CF18091E3
:103B200094018430E8F00E941D2482E390E02BEFA2
:103B3000FC0120838DE295E00E9481288091920112
:103B4000909193018730F7E09F0724F483E38093FB
:103B50006B0003C084E380936B001092FC0113C0E0
:103B6000809194018F5F809394010DC08A819B8125
:103B700001969B838A838A819B818D3091050CF409
:103B8000B0CF1092940120911D0130911E014091FF
:103B90001F015091200180918E0190918F01A09181
:103BA0009001B091910179018A01E81AF90A0A0B92
:103BB0001B0BD801C7018F319105A105B10580F01C
:103BC00080911D0190911E01A0911F01B0912001D3
:103BD00087309105A105B10518F085E380936B004E
:103BE00019828C819D8121EF3DE1FC01318320838D
:103BF0008981882311F481E001C042CF0F900F909A
:103C00000F900F900F90DF91CF911F910F91FF9028
:103C1000EF900895CF93DF93CDB7DEB7AC970FB693
:103C2000F894DEBF0FBECDBF98A78FA381E0898334
:103C30008FA198A5FC0180819181009749F08FA107
:103C400098A5FC018081918100008F939F93089536
:103C500081E0809395011092970110929601109245
:103C600099011092980110921C0110921B018FA1D2
:103C700098A527E33EE1FC013183208380911D015B
:103C800090911E01A0911F01B091200182309105F9
:103C9000A105B10510F480E0E8C1809125018823D9
:103CA00061F181E08093950187E290E027E230E0C6
:103CB000F9012081207EFC0120838FA198A52DE5AC
:103CC0003EE1FC013183208380912501882311F09E
:103CD00080E0CBC186E290E026E230E0F90120816D
:103CE0002F7EFC01208386E290E026E230E0F9019D
:103CF00020812064FC0120836EC186E290E0FC01FB
:103D00008081882F90E080719927009709F463C122
:103D100086E290E026E230E0F90120812F7EFC016E
:103D20002083809195018130C9F584E290E0FC0107
:103D300080819181CC01A0E0B0E08A839B83AC8339
:103D4000BD832A813B814C815D8187ED92E0DC015E
:103D50000E943828DC01CB0128EE33E040E050E03F
:103D6000BC01CD010E94E227DA01C9018A839B834D
:103D7000AC83BD838A819B81909397018093960148
:103D800082E08093950187E290E027E230E0F9013C
:103D90002081207E2160FC01208321C084E290E00C
:103DA000FC0180819181CC01A0E0B0E08A839B83FB
:103DB000AC83BD838A819B81909399018093980104
:103DC0008FEF8093220181E08093950187E290E05C
:103DD00027E230E0F9012081207EFC01208380E091
:103DE00090E0A0EAB0E48E839F83A887B9872BEA8E
:103DF0003AEA4AE250E46E817F81888599850E9483
:103E00004927DC01CB018A879B87AC87BD878E81E0
:103E10009F81A885B9859C01AD01BC01CD010E949F
:103E2000CC24DC01CB018E879F87A88BB98B20E047
:103E300030E040E85FE36A857B858C859D850E9444
:103E4000302588231CF481E08A8BB6C020E03FEF48
:103E50004FE757E46E857F85888999890E94D5262A
:103E600018160CF07FC020E030E04AE754E46E8181
:103E70007F81888599850E943425DC01CB018B8B5D
:103E80009C8BAD8BBE8B20E030E04AEF54E46B8915
:103E90007C898D899E890E944927DC01CB018F8B0B
:103EA000988FA98FBA8F20E030E040E85FE36F89F8
:103EB000788D898D9A8D0E94302588232CF481E09D
:103EC00090E09C8F8B8F41C020E03FEF4FE757E49D
:103ED0006F89788D898D9A8D0E94D52618165CF58C
:103EE00020E030E040E251E46B897C898D899E8935
:103EF0000E944927DC01CB01BC01CD010E94D225E3
:103F0000DC01CB019C8F8B8F0FC088EC90E09E8FE3
:103F10008D8F8D8D9E8D0197F1F79E8F8D8F8B8D5F
:103F20009C8D01979C8F8B8F8B8D9C8D009769F753
:103F30008EA18A8B41C06F89788D898D9A8D0E9460
:103F4000D225DC01CB019C8F8B8F8B8D9C8D98A310
:103F50008F8F8F8D98A10197F1F798A38F8F8EA1E6
:103F60008A8B2AC020E030E04FE753E46A857B85E6
:103F70008C859D850E94D5261816ACF46E857F85AC
:103F8000888999890E94D225DC01CB019AA389A353
:103F900089A19AA19CA38BA38BA19CA10197F1F766
:103FA0009CA38BA30FC06A857B858C859D850E9411
:103FB000D225DC01CB018A8B8A898DA38DA18A95BC
:103FC000F1F78DA386E290E026E230E0F90120814E
:103FD0002064FC01208380912201882F90E0817071
:103FE00099270097A1F1809122018E7F8093220171
:103FF0008091960190919701823091056CF08091AB
:1040000096019091970190931C0180931B0110924F
:104010009901109298011BC080919801909199018B
:104020008230910584F08091980190919901919549
:104030008195910990931C0180931B011092970127
:104040001092960104C010921C0110921B0119825B
:104050008FA198A528E230E2FC0131832083898179
:10406000882311F481E001C018CEAC960FB6F89405
:10407000DEBF0FBECDBFDF91CF910895CF93DF9309
:10408000CDB7DEB7A3970FB6F894DEBF0FBECDBF96
:104090009F8F8E8F2E8D3F8D8BE995E09D838C8336
:1040A0008C819D81FC0145915491CF015F834E83AA
:1040B0009D838C838E819F818217930710F48FEFED
:1040C000C7C08DE595E09987888788859985FC012B
:1040D00025913491CF013B872A87998788878A85E4
:1040E0009B859A8389832E8D3F8D89819A81821742
:1040F000930714F080E0ACC081E08B831AC08B8101
:10410000882F90E0880F991F835A9A4F9D878C873C
:104110008C859D85FC0125913491CF013F872E87A9
:104120009D878C878E859F859A8389838B818F5FFE
:104130008B838B818F3138F429813A818E8D9F8DCD
:1041400028173907E4F22E8D3F8D89819A8128172F
:10415000390791F48B81282F30E04FEF429FC00147
:10416000439F900D112496958795929582958F7017
:1041700089279F7089276CC08B8181508B838B81AD
:10418000882F90E00197880F991F835A9A4F998B37
:10419000888B88899989FC0125913491CF013B8BCB
:1041A0002A8B998B888B8A899B899D8B8C8B8B81A1
:1041B000882F90E0880F991F835A9A4F9F8B8E8B80
:1041C0008E899F89FC0125913491CF01398F288FE9
:1041D0009F8B8E8B888D998D9B8F8A8F8B81882F5B
:1041E00090E001979C014FEF429FC001439F900DCB
:1041F00011249D8F8C8F2E8D3F8D8C899D89A901D7
:10420000481B590BCA019C014FEF429FC001439FBD
:10421000900D11244A8D5B8D2C893D89BA01621B5A
:10422000730B9B01B9010E94BA27CB019C018C8DB5
:104230009D8D820F931F9D8F8C8F8C8D9D8D2FE177
:1042400030E0B9010E94CE27CB019D8F8C8F8C8DE1
:10425000A3960FB6F894DEBF0FBECDBFDF91CF910E
:104260000895CF93DF93CDB7DEB761970FB6F8947B
:10427000DEBF0FBECDBF898B8989869586958695D1
:10428000882F90E0880F991F83569A4F9A838983CD
:1042900089819A81FC0125913491CF013C832B8344
:1042A0009A8389838B819C819E838D838989877082
:1042B000882319F48D819E8155C0898986958695BC
:1042C0008695882F90E00196880F991F83569A4F04
:1042D00098878F838F819885FC0125913491CF0138
:1042E0003A87298798878F8389859A859C878B87CA
:1042F0008D819E819E878D878989869586958695F5
:10430000882F90E0880F991F880F991F880F991F99
:10431000988B8F872B853C858D819E81A901481BB9
:10432000590BCA01AC018989282F30E08F85988903
:10433000281B390B429FC001439F900D529F900D47
:10434000112499230CF40796959587959595879553
:10435000959587952D853E85820F931F9E878D8726
:104360008D859E8561960FB6F894DEBF0FBECDBFDA
:10437000DF91CF910895CF93DF93CDB7DEB72C9720
:104380000FB6F894DEBF0FBECDBF98878F832F8105
:104390003885C901880F991F820F931F99230CF448
:1043A0000196959587959A83898389819A8128EECC
:1043B00033E0B9010E94CE27CB019C838B83898196
:1043C0009A8128EE33E0B9010E94CE279E838D8327
:1043D0008F81988581709927009719F085E390E087
:1043E00002C080E390E02DED35E0492F4F938F938D
:1043F0008E818F938D818F938C818F938B818F93FF
:10440000832F8F93822F8F930E945F288DB79EB743
:1044100008960FB6F894DEBF0FBECDBF2C960FB630
:10442000F894DEBF0FBECDBFDF91CF9108950F93FB
:104430001F93CF93DF93CDB7DEB72B970FB6F894CA
:10444000DEBF0FBECDBF98878F8369875B874A87A2
:104450001A82198281E090E09C838B8312C02B81A9
:104460008F8198850296622F0E94511429813A818A
:10447000820F931F9A8389838B819C8101969C83F1
:104480008B838985282F30E08B819C812817390701
:1044900034F789819A818E529E4F9A8389838981CC
:1044A0009A819C0136952795C901880F991F280F7D
:1044B000391F89819A8181709927820F931F9E836A
:1044C0008D8389819A8181709927009719F0E5E39E
:1044D000F0E002C0E0E3F0E00D811E81C801969596
:1044E000879596958795969587959C01A5ECB0E262
:1044F0000E942928AC01529542954F7045275F7064
:10450000452728EE33E0429FC001439F900D529F04
:10451000900D1124A801481B590B8D819E81969501
:10452000879596958795969587959C01A5ECB0E221
:104530000E9429289C01329522952F7023273F70D5
:10454000232789EE95E06B856F936A856F936F2FB4
:104550006F936E2F6F93652F6F934F93432F4F93EE
:104560002F93292F2F938F930E945F288DB79EB78B
:104570000A960FB6F894DEBF0FBECDBF2B960FB6CE
:10458000F894DEBF0FBECDBFDF91CF911F910F9189
:104590000895CF93DF93CDB7DEB72D970FB6F8947C
:1045A000DEBF0FBECDBF9C878B876D871A821982B5
:1045B0008FC089819A819C838B8389819A8101969E
:1045C0009E838D832CC08D819E81880F991F880FBB
:1045D000991F2B853C85820F931FFC01208131811F
:1045E000428153818B819C81880F991F880F991F6D
:1045F0006B857C85860F971FFC0180819181A2814C
:10460000B381281739074A075B0724F48D819E81FF
:104610009C838B838D819E8101969E838D838D8566
:10462000282F30E08D819E818217930764F22B81C1
:104630003C8189819A812817390709F444C089810E
:104640009A81880F991F880F991F2B853C85820FAF
:10465000931FFC0180819181A281B3818F83988710
:10466000A987BA8789819A81880F991F880F991F16
:104670002B853C85280F391F8B819C81880F991FC2
:10468000880F991F4B855C85840F951FFC018081E5
:104690009181A281B381F90180839183A283B38345
:1046A0008B819C81880F991F880F991F2B853C85D2
:1046B000280F391F8F819885A985BA85F9018083D4
:1046C0009183A283B38389819A8101969A83898396
:1046D0008D85282F30E089819A81821793070CF409
:1046E00068CF2D960FB6F894DEBF0FBECDBFDF9119
:1046F000CF910895CF93DF93CDB7DEB729970FB64B
:10470000F894DEBF0FBECDBF98878F8369878985F8
:104710008F3F29F48FEE9AE09A83898305C08985BB
:104720000E9431219A8389831B8281E08C8314C08B
:104730008F81988502966C810E9451149E838D838F
:104740002D813E8189819A812817390714F081E0F3
:104750008B838C818F5F8C838C818D3048F38B8130
:1047600029960FB6F894DEBF0FBECDBFDF91CF9173
:104770000895CF93DF93CDB7DEB728970FB6F8949F
:10478000DEBF0FBECDBF9F838E83688788850E9462
:1047900031219B838A8381E089831FC08E819F8121
:1047A000029669810E9451149D838C832C813D81E6
:1047B0008A819B81821793076CF08981815060E028
:1047C00070E00E94FA23982F81E08927882311F056
:1047D00081E007C089818F5F898389818D30F0F204
:1047E00080E028960FB6F894DEBF0FBECDBFDF91F4
:1047F000CF910895CF93DF9300D01F92CDB7DEB74E
:1048000089837B836A838981282F30E081E090E06F
:1048100002C0880F991F2A95E2F79C018A819B812B
:1048200082239323009711F081E001C080E00F9074
:104830000F900F90DF91CF910895CF93DF93CDB775
:10484000DEB727970FB6F894DEBF0FBECDBF81E06D
:1048500096E00E9481288AE096E00E94812888E103
:1048600096E00E94812888E390E028E330E0F90197
:1048700020812E7FFC01208388E390E028E330E054
:10488000F90120812B7FFC0120831092FE01109200
:10489000FD0181E080935E018091FD019091FE0118
:1048A0008B838C81807F8C832C818091FD01909102
:1048B000FE0188279F70892F9927822B8C8381E0A6
:1048C00089830000809156018823E1F740E067E08A
:1048D000CE0101960E945C1982E390E022E330E071
:1048E000F90120812B7FFC01208327960FB6F894D5
:1048F000DEBF0FBECDBFDF91CF910895CF93DF9381
:10490000CDB7DEB786E296E00E9481288FE296E07E
:104910000E9481288DE396E00E9481288BE496E036
:104920000E94812888E390E028E330E0F9012081AB
:104930002E7FFC01208388E390E028E330E0F9013A
:1049400020812B7FFC012083109223011092FE0115
:104950001092FD0181E080935E0182E390E022E30A
:1049600030E0F90120812460FC01208382E390E0A3
:1049700022E330E0F90120812860FC01208382E3FA
:1049800090E022E330E0F90120812061FC012083E6
:10499000DF91CF9108955058BB27AA270ED0CBC1E5
:1049A000BCD130F0C1D120F031F49F3F11F41EF49E
:1049B0008CC10EF4E095E7FB82C1E92FCDD180F3E5
:1049C000BA17620773078407950718F071F49EF50C
:1049D000E5C10EF4E0950B2EBA2FA02D0B01B90105
:1049E00090010C01CA01A0011124FF27591B99F065
:1049F000593F50F4503E68F11A16F040A22F232F71
:104A0000342F4427585FF3CF469537952795A795C0
:104A1000F0405395C9F77EF41F16BA0B620B730B67
:104A2000840BBAF09150A1F0FF0FBB1F661F771FD8
:104A3000881FC2F70EC0BA0F621F731F841F48F48D
:104A4000879577956795B795F7959E3F08F0B3CF13
:104A50009395880F08F09927EE0F979587950895FD
:104A60000AD108F481E008950CD065C15DD140F011
:104A700054D130F021F45F3F19F021C151118FC1A1
:104A800024C16AD198F39923C9F35523B1F3951B37
:104A9000550BBB27AA2762177307840738F09F5F5F
:104AA0005F4F220F331F441FAA1FA9F333D00E2ECE
:104AB0003AF0E0E830D091505040E695001CCAF73B
:104AC00029D0FE2F27D0660F771F881FBB1F261700
:104AD00037074807AB07B0E809F0BB0B802DBF01D3
:104AE000FF2793585F4F2AF09E3F510568F0E7C0BB
:104AF00056C15F3FECF3983EDCF38695779567955A
:104B0000B795F7959F5FC9F7880F911D9695879583
:104B100097F90895E1E0660F771F881FBB1F6217A2
:104B200073078407BA0720F0621B730B840BBA0B60
:104B3000EE1F88F7E095089519F40EF0C0C02EC15D
:104B4000C4C012D1C8F39638C0F707F80F92E894A2
:104B50002BE33AEA48EB5FE7AAD10F920F920F924C
:104B60004DB75EB70F9262D1ECEFF0E0B1D04F914C
:104B70005F91EF91FF91E595EE1FFF1F49F0FE5702
:104B8000E0684427EE0F441FFA95E1F74195550B75
:104B900019D10F9007FE0DC1089504D06894B1118A
:104BA000FEC00895E1D088F09F5790F0B92F992763
:104BB000B751A0F0D1F0660F771F881F991F1AF028
:104BC000BA95C9F712C0B13081F0E8D0B1E00895CC
:104BD000E5C0672F782F8827B85F39F0B93FCCF34D
:104BE000869577956795B395D9F73EF4909580951E
:104BF000709561957F4F8F4F9F4F0895E89409C03E
:104C000097FB3EF490958095709561957F4F8F4FFF
:104C10009F4F9923A9F0F92F96E9BB279395F69515
:104C2000879577956795B795F111F8CFFAF4BB0F93
:104C300011F460FF1BC06F5F7F4F8F4F9F4F16C0F7
:104C4000882311F096E911C0772321F09EE8872F81
:104C5000762F05C0662371F096E8862F70E060E03D
:104C60002AF09A95660F771F881FDAF7880F9695B6
:104C7000879597F90895990F0008550FAA0BE0E85A
:104C8000FEEF16161706E807F907C0F0121613060E
:104C9000E407F50798F0621B730B840B950B39F44E
:104CA0000A2661F0232B242B252B21F408950A26B4
:104CB00009F4A140A6958FEF811D811D089597F9F4
:104CC0009F6780E870E060E008959FEF80EC0895B2
:104CD000DF93CF931F930F93FF92EF92DF927B01AD
:104CE0008C01689405C0DA2EEF01DFD0FE01E89454
:104CF000A5912591359145915591AEF3EF015DDE7A
:104D0000FE019701A801DA9479F7DF90EF90FF9008
:104D10000F911F91CF91DF91089500240A941616E8
:104D2000170618060906089500240A941216130699
:104D3000140605060895092E0394000C11F4882327
:104D400052F0BB0F40F4BF2B11F460FF04C06F5F43
:104D50007F4F8F4F9F4F089557FD9058440F551F19
:104D600059F05F3F71F04795880F97FB991F61F0ED
:104D70009F3F79F087950895121613061406551F64
:104D8000F2CF4695F1DF08C0161617061806991FD0
:104D9000F1CF86957105610508940895E894BB27C5
:104DA00066277727CB0197F9089565DF08F48FEF21
:104DB00008959B01AC0160E070E080E89FE354CE71
:104DC0007ECFCAC0D1DFE8F39923D9F3940F511DE8
:104DD000BBF39150504094F059F0882332F0660FA5
:104DE000771F881F91505040C1F79E3F510544F7EF
:104DF000880F911D9695879597F908955F3FACF0C0
:104E0000983E9CF0BB27869577956795B79508F4F3
:104E1000B1609395C1F7BB0F58F711F460FFE8CF6D
:104E20006F5F7F4F8F4F9F4FE3CFB9CFFA01DC0108
:104E3000AA0FBB1F9B01AC01BF5728F422273327C1
:104E4000442750781FC0B75188F4AB2F00244695F3
:104E500037952795011CA395D2F3002069F0220F06
:104E6000331F441FB395DAF30DD095CD6130710532
:104E7000A0E88A07B94630F49B01AC016627772782
:104E800088279078309621F02083318342835383A2
:104E900008950BD050CF41DF28F046DF18F095235E
:104EA00009F00DCF12CF11247ACF56DFA0F3959FD2
:104EB000D1F3950F50E0551F629FF001729FBB2701
:104EC000F00DB11D639FAA27F00DB11DAA1F649FAD
:104ED0006627B00DA11D661F829F2227B00DA11D60
:104EE000621F739FB00DA11D621F839FA00D611DE6
:104EF000221F749F3327A00D611D231F849F600D07
:104F0000211D822F762F6A2F11249F5750408AF03F
:104F1000E1F088234AF0EE0FFF1FBB1F661F771FCB
:104F2000881F91505040A9F79E3F510570F0C7CEA1
:104F300036CF5F3FECF3983EDCF386957795679527
:104F4000B795F795E7959F5FC1F7FE2B880F911DE9
:104F50009695879597F908959F3F31F0915020F4E9
:104F6000879577956795B795880F911D9695879545
:104F700097F90895AA1BBB1B51E107C0AA1FBB1FCD
:104F8000A617B70710F0A61BB70B881F991F5A95D5
:104F9000A9F780959095BC01CD01089597FB072E48
:104FA00016F4009407D077FD09D00E94BA2707FCB9
:104FB00005D03EF4909581959F4F08957095619529
:104FC0007F4F0895A1E21A2EAA1BBB1BFD010DC045
:104FD000AA1FBB1FEE1FFF1FA217B307E407F507A9
:104FE00020F0A21BB30BE40BF50B661F771F881F85
:104FF000991F1A9469F760957095809590959B011B
:10500000AC01BD01CF010895052E97FB1EF400945D
:105010000E941B2857FD07D00E94E22707FC03D0FF
:105020004EF40C941B2850954095309521953F4F98
:105030004F4F5F4F089590958095709561957F4F84
:105040008F4F9F4F0895EE0FFF1F0590F491E02DB5
:105050000994A29FB001B39FC001A39F700D811D51
:105060001124911DB29F700D811D1124911D089571
:105070000E942928A59F900DB49F900DA49F800D9C
:10508000911D11240895B7FF0C9438280E943828E8
:10509000821B930B0895A0E0B0E0E1E5F8E20C94E8
:1050A000692BFE01359661917191AF018091BE022D
:1050B0009091BF020E94B028E2E00C94852BA0E002
:1050C000B0E0E5E6F8E20C94672BFE0137966191BB
:1050D00071910EEB12E0D8018D919C91DC01139639
:1050E0002C911397286013962C93AF010E94B0283F
:1050F000D801ED91FC912381277F2383E4E00C9478
:10510000832B0F931F93CF93DF93EC01E091BE02AB
:10511000F091BF02838181FF1CC000E010E0FE011E
:1051200084916091BE027091BF02DB011896ED91EF
:10513000FC911997882339F00995892B11F00FEF0D
:105140001FEF2196ECCF8AE00995892B11F4C80155
:1051500002C08FEF9FEFDF91CF911F910F910895C4
:10516000ACE0B0E0E6EBF8E20C94592B7C016B016B
:105170008A01FC0117821682838181FFBDC1CE01A5
:1051800001964C01F7019381F60193FD859193FF00
:1051900081916F01882309F4ABC1853239F493FD05
:1051A000859193FF81916F01853229F4B70190E0D9
:1051B0000E94C92AE7CF512C312C20E02032A0F4E4
:1051C0008B3269F030F4803259F0833269F4206117
:1051D0002CC08D3239F0803339F4216026C0226032
:1051E000246023C0286021C027FD27C030ED380F80
:1051F0003A3078F426FF06C0FAE05F9E300D1124A5
:10520000532E13C08AE0389E300D1124332E2062B5
:105210000CC08E3221F426FD6BC1206406C08C3692
:1052200011F4206802C0883641F4F60193FD85919F
:1052300093FF81916F018111C1CF982F9F7D95546C
:10524000933028F40C5F1F4FFFE3F9830DC08336C2
:1052500031F0833771F0833509F05BC022C0F8016B
:10526000808189830E5F1F4F44244394512C540145
:1052700015C03801F2E06F0E711CF801A080B180FA
:1052800026FF03C0652D70E002C06FEF7FEFC50100
:105290002C870E94BE2A2C0183012C852F77222E79
:1052A00017C03801F2E06F0E711CF801A080B180C8
:1052B00026FF03C0652D70E002C06FEF7FEFC501D0
:1052C0002C870E94B32A2C012C852068222E830172
:1052D00023FC1BC0832D90E048165906B0F4B7019B
:1052E00080E290E00E94C92A3A94F4CFF50127FCAD
:1052F000859127FE81915F01B70190E00E94C92A44
:1053000031103A94F1E04F1A51084114510471F7E9
:10531000E5C0843611F0893639F5F80127FF07C05A
:1053200060817181828193810C5F1F4F08C0608111
:105330007181882777FD8095982F0E5F1F4F2F76FC
:10534000B22E97FF09C090958095709561957F4F1B
:105350008F4F9F4F2068B22E2AE030E0A4010E94B8
:10536000FB2AA82EA81844C0853729F42F7EB22E18
:105370002AE030E025C0F22FF97FBF2E8F36C1F032
:1053800018F4883579F0B4C0803719F0883721F0E7
:10539000AFC02F2F2061B22EB4FE0DC08B2D8460C4
:1053A000B82E09C024FF0AC09F2F9660B92E06C0F0
:1053B00028E030E005C020E130E002C020E132E02A
:1053C000F801B7FE07C060817181828193810C5F13
:1053D0001F4F06C06081718180E090E00E5F1F4F1B
:1053E000A4010E94FB2AA82EA818FB2DFF77BF2E30
:1053F000B6FE0BC02B2D2E7FA51450F4B4FE0AC0B0
:10540000B2FC08C02B2D2E7E05C07A2C2B2D03C09C
:105410007A2C01C0752C24FF0DC0FE01EA0DF11D90
:105420008081803311F4297E09C022FF06C0739465
:10543000739404C0822F867809F0739423FD13C0FF
:1054400020FF06C05A2C731418F4530C5718732CF1
:10545000731468F4B70180E290E02C870E94C92A97
:1054600073942C85F5CF731410F4371801C0312CC8
:1054700024FF12C0B70180E390E02C870E94C92A64
:105480002C8522FF17C021FF03C088E590E002C0F1
:1054900088E790E0B7010CC0822F867859F021FD93
:1054A00002C080E201C08BE227FD8DE2B70190E0EF
:1054B0000E94C92AA51438F4B70180E390E00E9445
:1054C000C92A5A94F7CFAA94F401EA0DF11D8081FC
:1054D000B70190E00E94C92AA110F5CF332009F44A
:1054E00051CEB70180E290E00E94C92A3A94F6CFEB
:1054F000F7018681978102C08FEF9FEF2C96E2E142
:105500000C94752BDC01CB01FC01E199FECF06C0A8
:10551000FFBBEEBBE09A31960DB20D924150504068
:10552000B8F70895DC01A40FB51F4150504048F072
:10553000CB01840F951F2E910E94A32A4150504009
:10554000D0F70895262FE199FECF9FBB8EBBE09A3E
:1055500001970DB2021631F02DBB0FB6F894E29A06
:10556000E19A0FBE0895FC01059061507040011052
:10557000D8F7809590958E0F9F1F0895FC0161507C
:10558000704001900110D8F7809590958E0F9F1F65
:1055900008950F931F93CF93DF93182F092FEB01DB
:1055A0008B8181FD03C08FEF9FEF20C082FF10C071
:1055B0004E815F812C813D81421753077CF4E88145
:1055C000F9819F012F5F3F4F39832883108306C0E5
:1055D000E885F985812F0995892B29F72E813F814F
:1055E0002F5F3F4F3F832E83812F902FDF91CF91ED
:1055F0001F910F910895FA01AA27283051F1203107
:1056000081F1E8946F936E7F6E5F7F4F8F4F9F4F56
:10561000AF4FB1E03ED0B4E03CD0670F781F891F98
:105620009A1FA11D680F791F8A1F911DA11D6A0F66
:10563000711D811D911DA11D20D009F468943F9119
:105640002AE0269F11243019305D3193DEF6CF0118
:105650000895462F4770405D4193B3E00FD0C9F7DE
:10566000F6CF462F4F70405D4A3318F0495D31FD4B
:105670004052419302D0A9F7EACFB4E0A69597959E
:10568000879577956795BA95C9F700976105710574
:1056900008959B01AC010A2E0694579547953795BE
:1056A0002795BA95C9F7620F731F841F951FA01D18
:1056B00008952F923F924F925F926F927F928F92B6
:1056C0009F92AF92BF92CF92DF92EF92FF920F9391
:1056D0001F93CF93DF93CDB7DEB7CA1BDB0B0FB69B
:1056E000F894DEBF0FBECDBF09942A883988488858
:1056F0005F846E847D848C849B84AA84B984C884EE
:10570000DF80EE80FD800C811B81AA81B981CE0FE4
:10571000D11D0FB6F894DEBF0FBECDBFED010895C9
:04572000F894FFCF2B
:10572400FF7F1E000080000000800001FFFFFFFFDC
:10573400FFFFFFFFFFFFFFFFFFFFFFFFFFFFFFFF75
:10574400FFFFFFFF010000000200000000771500CA
:105754000000000143302E3541008A010D01920101
:10576400B201960189019F010F01FF008601090121
:0A577400840125780900256409006E
:00000001FF
